:100000000C945D000C9473040C944C040C948500C7
:100010000C9485000C9485000C9485000C9485004C
:100020000C9485000C9485000C9485000C9485003C
:100030000C9485000C9485000C9485000C9485002C
:100040000C9402040C9485000C9485000C9485009B
:100050000C9485000C9485000C9485000C9485000C
:100060000C9485000C94850000000008000201003B
:100070000003040700000000000000000000000072
:10008000250028002B0000000000240027002A0083
:10009000040404040404040402020202020203032E
:1000A0000303030301020408102040800102040836
:1000B0001020010204081020670511241FBECFEF95
:1000C000D8E0DEBFCDBF11E0A0E0B1E0E2EFFEE09E
:1000D00002C005900D92A632B107D9F721E0A6E241
:1000E000B1E001C01D92A735B207E1F710E0CDE500
:1000F000D0E004C02197FE010E946C07CC35D107E7
:10010000C9F70E949A040C9477070C94000090E0C1
:10011000FC01EC55FF4F2491FC01E057FF4F849107
:10012000882399F090E0880F991FFC01EA57FF4F50
:10013000A591B491FC01E458FF4F859194918FB73C
:10014000F894EC91E22BEC938FBF089590E0FC01C2
:10015000E859FF4F2491FC01EC55FF4F3491FC010D
:10016000E057FF4FE491EE2309F43CC0222339F11C
:10017000233091F038F42130A9F0223001F584B514
:100180008F7D12C0273091F02830A1F02430B9F4CF
:10019000809180008F7D03C0809180008F77809355
:1001A00080000DC084B58F7784BD09C08091B000F8
:1001B0008F7703C08091B0008F7D8093B000F0E016
:1001C000EE0FFF1FE458FF4FA591B4919FB7F8942D
:1001D000611104C08C913095382302C0EC913E2B04
:1001E0003C939FBF089580912E0190912F01823002
:1001F0009105B9F0019690932F0180932E0184ED23
:1002000091E0A0E0B0E08093320190933301A0939D
:100210003401B093350181E090E0909331018093F7
:10022000300108950895CF92DF92EF92FF920F93DD
:100230001F93CF93DF936C017A018B01C0E0D0E074
:10024000CE15DF0581F0D8016D918D01D601ED91BC
:10025000FC910190F081E02DC6010995892B11F0E8
:100260002196EECF7E01C701DF91CF911F910F91B3
:10027000FF90EF90DF90CF900895CF93DF93EC0144
:1002800060E08E810E94A60061E08E810E94A6003F
:1002900060E08E810E94A6008BE891E00197F1F763
:1002A000DF91CF910895CF92DF92EF92FF920F935B
:1002B0001F93CF93DF936C017C0187E0E80EF11C64
:1002C000C0E0D0E0062F10E0B8010C2E02C07595FA
:1002D00067950A94E2F76170F70181917F010E94AE
:1002E000A6002196C430D10579F7C601DF91CF91E0
:1002F0001F910F91FF90EF90DF90CF900C943D01F4
:10030000CF92DF92EF92FF920F931F93CF93DF93E1
:10031000EC01F62E642F8C810E94A6008D818F3F08
:1003200019F060E00E94A6008F850F2D10E084FF79
:1003300025C06E0187E0C80ED11CE12CF12CB8015C
:100340000E2C02C0759567950A94E2F76170F6016C
:1003500081916F010E94A600FFEFEF1AFF0A88E06B
:10036000E816F10461F7CE01DF91CF911F910F9153
:10037000FF90EF90DF90CF900C943D01B80184E0A6
:10038000759567958A95E1F7CE010E9453016F2D0F
:10039000CE01DF91CF911F910F91FF90EF90DF90F1
:1003A000CF900C94530140E0682F8FE391E00C94C0
:1003B0008001CF93DF93823028F090914E019860B6
:1003C00090934E01809352011092530180E48093E8
:1003D000540180E18093550180E58093560180911E
:1003E00043010E948700809144018F3F11F00E94D9
:1003F0008700809145010E948700CFE3D1E09E01F4
:100400002F53314080914E0184FD03C084E090E081
:1004100002C088E090E021962817390724F48E81E5
:100420000E948700ECCF8BE39DE00197F1F760E03D
:10043000809143010E94A60060E0809145010E94E6
:10044000A600809144018F3F19F060E00E94A60051
:1004500080914E0184FD20C063E08FE391E00E9413
:100460005301CBE4D6E4CE010197F1F763E08FE3CB
:1004700091E00E9453012197F1F763E08FE391E04F
:100480000E94530183E592E00197F1F762E08FE368
:1004900091E00E94530115C080620E94D3018BE459
:1004A00096E40197F1F780914E0180620E94D3019A
:1004B00083E592E00197F1F780914E0180620E94FE
:1004C000D30180914E0180620E94D30184E0809329
:1004D0004F018CE00E94D30181E00E94D3018BE3A5
:1004E0009FE10197F1F782E08093500186E0DF9170
:1004F000CF910C94D30141E00E94800181E090E013
:100500000895089580E090E008950F931F932FB70A
:10051000F89480913B0190913C01A0913D01B091F4
:100520003E012FBF409128015091290160912A017D
:1005300070912B014115510561057105A1F08C01E8
:100540009D01041B150B260B370B40913201509176
:1005500033016091340170913501041715072607A6
:10056000370708F46FC08093280190932901A09366
:100570002A01B0932B0180912601909127012091AF
:10058000300130913101009741F4232B19F481E0BF
:1005900090E015C080E290E012C08032910551F4E5
:1005A000232B29F410922701109226010CC08FE111
:1005B00090E005C0232B11F4019601C001979093A0
:1005C000270180932601809126019091270164E004
:1005D00070E00E94220781309105A1F044F4892B3C
:1005E00089F561E089E00E94A60060E010C08230D9
:1005F0009105B1F0039731F561E089E00E94A60012
:1006000060E013C060E089E00E94A60061E08AE03B
:100610000E94A60061E08BE00E94A60060E00DC091
:1006200060E089E00E94A60061E08AE00E94A600E6
:1006300060E08BE00E94A60061E08CE01F910F91CA
:100640000C94A6001F910F910895009769F0FC018A
:1006500001900020E9F73197AF01481B590BBC010D
:100660008FE391E00C94130180E090E008958F9265
:100670009F92AF92BF92CF92DF92EF92FF92CF9371
:10068000DF93CDB7DEB7A1970FB6F894DEBF0FBEEC
:10069000CDBF85E480937C0080917A008064809354
:1006A0007A0080917A0086FDFCCF6091780080917D
:1006B000790070E0782B6F5F7340072E000C880B79
:1006C000990B0E9429062DE834E342E55EE30E947F
:1006D000B50620E030E04BE153E40E9485050E941E
:1006E000F10570932D0160932C0120910001309150
:1006F00001012617370709F471C070930101609357
:100700000001E0915201E23010F4E15001C0E1E05B
:10071000F0E0E15CFE4F848980680E94D30182E1B1
:1007200091E00E942503E0915201E23010F4E15083
:1007300001C0E1E0F0E0E15CFE4F848980680E9446
:10074000D301C0902C01D0902D010D2C000CEE088F
:10075000FF08F7FE26C041E06DE28FE391E00E94C2
:10076000800122273327A9012C193D094E095F0971
:1007700019A2CE0181967C019AE0892E912CA12CA0
:10078000B12CCA01B901A50194010E943607605D30
:10079000F70162937F01211531054105510589F764
:1007A0001AC0A701960119A2CE0181967C018AE0A8
:1007B000882E912CA12CB12CCA01B901A50194015C
:1007C0000E943607605DF70162937F0121153105B4
:1007D0004105510589F7C7010E94250381E0A196D3
:1007E0000FB6F894DEBF0FBECDBFDF91CF91FF9063
:1007F000EF90DF90CF90BF90AF909F908F90089533
:100800000E9472071F920F920FB60F9211242F931E
:100810003F938F939F93AF93BF9380913B019091B0
:100820003C01A0913D01B0913E0130913A0123E09D
:10083000230F2D3720F40196A11DB11D05C026E818
:10084000230F0296A11DB11D20933A0180933B0115
:1008500090933C01A0933D01B0933E0180913601FD
:1008600090913701A0913801B09139010196A11DF5
:10087000B11D8093360190933701A0933801B09356
:100880003901BF91AF919F918F913F912F910F901F
:100890000FBE0F901F9018951F920F920FB60F92D8
:1008A00011242F933F934F935F936F937F938F9375
:1008B0009F93AF93BF93EF93FF93E0910401F09167
:1008C00005010995FF91EF91BF91AF919F918F9194
:1008D0007F916F915F914F913F912F910F900FBE3C
:1008E0000F901F9018951F920F920FB60F92112420
:1008F0002F933F934F935F936F937F938F939F9328
:10090000AF93BF93EF93FF93E0910201F091030146
:100910000995FF91EF91BF91AF919F918F917F9139
:100920006F915F914F913F912F910F900FBE0F905C
:100930001F901895789484B5826084BD84B58160D9
:1009400084BD85B5826085BD85B5816085BD80919A
:100950006E00816080936E00109281008091810012
:10096000826080938100809181008160809381000A
:10097000809180008160809380008091B1008460CC
:100980008093B1008091B00081608093B00080912D
:100990007A00846080937A0080917A0082608093EC
:1009A0007A0080917A00816080937A0080917A0049
:1009B000806880937A001092C10083EF90E090935A
:1009C000030180930201809169008C7F8160809394
:1009D0006900E89A89E00E9487008AE00E94870007
:1009E0008BE00E9487008CE00E94870082E00E94DA
:1009F000D90186E191E00E942503C0E0D0E089EAB8
:100A0000C82E83E0D82EE12CF12CC0923201D09276
:100A10003301E0923401F0923501109231011092CD
:100A2000300180912E0190912F01892B51F40E9469
:100A30003703882331F080912C0190912D014A9742
:100A40006CF480912E0190912F01019751F40E9436
:100A50003703882331F00E948502F3CF0E9485027C
:100A6000E0CF80912E0190912F01029751F58FB721
:100A7000F89480903B0190903C01A0903D01B09093
:100A80003E018FBF2FB7F89480913B0190913C01BC
:100A9000A0913D01B0913E012FBF88199909AA0983
:100AA000BB09883B9B40A105B10538F40E94370380
:100AB000882319F00E948502E5CF10922F01109231
:100AC0002E01209709F4A1CF0E9400009ECFEFE3F2
:100AD000F1E0138212828AE091E091838083148294
:100AE0008FEF858381E0868383E0878384E080873E
:100AF00085E0818786E082871386148615861686B0
:100B0000178681E00C94D9015058BB27AA270E9470
:100B10009C050C947B060E946D0638F00E947406BA
:100B200020F039F49F3F19F426F40C946A060EF471
:100B3000E095E7FB0C946406E92F0E948C0658F3BD
:100B4000BA17620773078407950720F079F4A6F5B2
:100B50000C94AE060EF4E0950B2EBA2FA02D0B01CF
:100B6000B90190010C01CA01A0011124FF27591BF2
:100B700099F0593F50F4503E68F11A16F040A22FF8
:100B8000232F342F4427585FF3CF46953795279569
:100B9000A795F0405395C9F77EF41F16BA0B620B68
:100BA000730B840BBAF09150A1F0FF0FBB1F661FAF
:100BB000771F881FC2F70EC0BA0F621F731F841FF2
:100BC00048F4879577956795B795F7959E3F08F018
:100BD000B0CF9395880F08F09927EE0F97958795DA
:100BE00008950E94F8056894B1110C94AF06089519
:100BF0000E94940688F09F5798F0B92F9927B75113
:100C0000B0F0E1F0660F771F881F991F1AF0BA95B0
:100C1000C9F714C0B13091F00E94AE06B1E008955A
:100C20000C94AE06672F782F8827B85F39F0B93F4C
:100C3000CCF3869577956795B395D9F73EF4909563
:100C40008095709561957F4F8F4F9F4F0895E894E1
:100C500009C097FB3EF490958095709561957F4F04
:100C60008F4F9F4F9923A9F0F92F96E9BB279395B2
:100C7000F695879577956795B795F111F8CFFAF4C2
:100C8000BB0F11F460FF1BC06F5F7F4F8F4F9F4FF3
:100C900016C0882311F096E911C0772321F09EE851
:100CA000872F762F05C0662371F096E8862F70E0B7
:100CB00060E02AF09A95660F771F881FDAF7880F91
:100CC0009695879597F9089597F99F6780E870E062
:100CD00060E008959FEF80EC089500240A941616B2
:100CE000170618060906089500240A94121613061A
:100CF000140605060895092E0394000C11F48823A8
:100D000052F0BB0F40F4BF2B11F460FF04C06F5FC3
:100D10007F4F8F4F9F4F089557FD9058440F551F99
:100D200059F05F3F71F04795880F97FB991F61F06D
:100D30009F3F79F087950895121613061406551FE4
:100D4000F2CF4695F1DF08C0161617061806991F50
:100D5000F1CF86957105610508940895E894BB2745
:100D600066277727CB0197F908950E94C8060C944F
:100D70007B060E946D0638F00E94740620F09523D1
:100D800011F00C9464060C946A0611240C94AF06BE
:100D90000E948C0670F3959FC1F3950F50E0551F8C
:100DA000629FF001729FBB27F00DB11D639FAA27C0
:100DB000F00DB11DAA1F649F6627B00DA11D661F0F
:100DC000829F2227B00DA11D621F739FB00DA11D30
:100DD000621F839FA00D611D221F749F3327A00DEA
:100DE000611D231F849F600D211D822F762F6A2F86
:100DF00011249F5750409AF0F1F088234AF0EE0FEB
:100E0000FF1FBB1F661F771F881F91505040A9F717
:100E10009E3F510580F00C9464060C94AF065F3F32
:100E2000E4F3983ED4F3869577956795B795F79553
:100E3000E7959F5FC1F7FE2B880F911D96958795CB
:100E400097F9089597FB072E16F4009407D077FDC5
:100E500009D00E94580707FC05D03EF49095819573
:100E60009F4F0895709561957F4F0895A1E21A2EC6
:100E7000AA1BBB1BFD010DC0AA1FBB1FEE1FFF1F3E
:100E8000A217B307E407F50720F0A21BB30BE40B8E
:100E9000F50B661F771F881F991F1A9469F76095D5
:100EA0007095809590959B01AC01BD01CF0108958F
:100EB000AA1BBB1B51E107C0AA1FBB1FA617B70780
:100EC00010F0A61BB70B881F991F5A95A9F780959C
:100ED0009095BC01CD010895EE0FFF1F0590F49190
:100EE000E02D099481E090E0F8940C947707F89451
:020EF000FFCF32
:100EF200C80012011201000000007B0213018202ED
:100F020081022020200054656D70657261747572D3
:060F120065206973000078
:00000001FF
