:100000000C9473000C9490000C9490000C9490004D
:100010000C9490000C9490000C9490000C94900020
:100020000C9490000C9490000C9490000C94900010
:100030000C9490000C9490000C9490000C94900000
:100040000C948D020C9490000C9490000C949000F1
:100050000C9490000C9490000C9490000C949000E0
:100060000C9490000C94900079019601A701B701BF
:100070000702070207020702C5010702070207027B
:100080000702070207020702D201E901000000008F
:10009000240027002A0000000000250028002B0073
:1000A00000000000230026002900040404040404C6
:1000B0000404020202020202030303030303010217
:1000C00004081020408001020408102001020408E6
:1000D00010200000000800020100000304070000D7
:1000E00000000000000011241FBECFEFD8E0DEBFEB
:1000F000CDBF11E0A0E0B1E0ECE6F8E002C0059071
:100100000D92A831B107D9F721E0A8E1B1E001C013
:100110001D92AE3BB207E1F70E94D7020C94340463
:100120000C940000833081F028F4813099F0823003
:10013000A1F008958730A9F08830B9F08430D1F467
:10014000809180008F7D03C0809180008F778093A5
:100150008000089584B58F7702C084B58F7D84BDFB
:1001600008958091B0008F7703C08091B0008F7D9B
:100170008093B0000895CF93DF93282F30E0F901EA
:10018000EE52FF4F8491F901E254FF4FD491F901EF
:10019000E655FF4FC491CC2391F081110E9492004B
:1001A000EC2FF0E0EE0FFF1FE056FF4FA591B4914A
:1001B000EC91ED2381E090E021F480E002C080E04A
:1001C00090E0DF91CF9108951F93CF93DF93282F75
:1001D00030E0F901EE52FF4F8491F901E254FF4FF4
:1001E000D491F901E655FF4FC491CC23C1F0162FED
:1001F00081110E949200EC2FF0E0EE0FFF1FEA56F3
:10020000FF4FA591B4919FB7F894111104C08C9140
:10021000D095D82302C0EC91DE2BDC939FBFDF91F9
:10022000CF911F910895CF93DF9390E0FC01E254AA
:10023000FF4F2491FC01E655FF4F8491882361F123
:1002400090E0880F991FFC01E457FF4FC591D491AE
:10025000FC01EA56FF4FA591B491611109C09FB707
:10026000F8948881209582238883EC912E230BC0FB
:10027000623061F49FB7F8948881322F30958323E0
:100280008883EC912E2B2C939FBF06C08FB7F894D8
:10029000E8812E2B28838FBFDF91CF9108958E3078
:1002A00008F08E508770806480937C0080917A0083
:1002B000806480937A0080917A0086FDFCCF8091E3
:1002C00078002091790090E0922B0895DC01A45EE3
:1002D000BE4FEC914E2FEE0F550B660B770BFA01CC
:1002E000F197E231F10508F092C0EC5CFF4F0C94FD
:1002F0002E0411969C91119712968C91913359F47A
:10030000082E000C990BC09720911A0130911B0107
:10031000820F931F6CC0082E000C990BC097209180
:10032000180130911901820F931F6DC011969C9195
:10033000119712968C91913329F4082E000C990B89
:10034000C09755C0082E000C990BC0975CC0119641
:100350004C9180911A0190911B01209118013091CC
:100360001901820F931F413309F04DC040C011960F
:100370008C91813329F4809118019091190137C033
:1003800080911A0190911B013EC012968C91129798
:1003900011966C916053813311F488E001C089E0BB
:1003A0000C94E40011969C91119712968C919133C4
:1003B00041F4813311F48AE001C08BE00E94BB005C
:1003C00016C0813311F48AE001C08BE00E94BB00AB
:1003D0001AC011969C91119712968C91913361F4E9
:1003E000813311F481E001C082E00E944F019093BB
:1003F0001B0180931A010895813311F481E001C03B
:1004000082E00E944F019093190180931801089592
:10041000FA01E45EFE4F2181213339F46817790730
:100420006CF4CA0103960C946601223321F48617FA
:10043000970724F4F6CF8617970799F30895CF927C
:10044000DF92EF92FF920F931F93CF93DF9360E0C1
:1004500080E00E94E40060E081E00E94E40060E04F
:1004600082E00E94E40060E083E00E94E400C0E1DA
:10047000D1E000E010E0F9908F2D0E94BB00892BA5
:1004800031F00F5F1F4F04301105A9F732C094E11E
:10049000C92E91E0D92EC0E0D0E061E080E00E945A
:1004A000E40061E081E00E94E40061E082E00E94FB
:1004B000E40061E083E00E94E400F601E1906F0156
:1004C00060E08E2D0E94E4008F2D0E94BB00892BDE
:1004D00051F02196C430D10501F70BC08F2D0E9439
:1004E000BB00892B41F48E2D0E94BB00892B19F48F
:1004F000F5CF88E509C0CC0FDD1FCC0FDD1FC05044
:10050000DF4FC00FD11F8881DF91CF911F910F91D5
:10051000FF90EF90DF90CF9008951F920F920FB64B
:100520000F9211242F933F938F939F93AF93BF9379
:100530008091BA019091BB01A091BC01B091BD0125
:100540003091B90123E0230F2D3720F40196A11D2E
:10055000B11D05C026E8230F0296A11DB11D2093F1
:10056000B9018093BA019093BB01A093BC01B093F1
:10057000BD018091B5019091B601A091B701B091F4
:10058000B8010196A11DB11D8093B5019093B601EC
:10059000A093B701B093B801BF91AF919F918F9194
:1005A0003F912F910F900FBE0F901F901895CF93F2
:1005B000DF93CDB7DEB7C659D1090FB6F894DEBFC9
:1005C0000FBECDBF789484B5826084BD84B5816050
:1005D00084BD85B5826085BD85B5816085BD80910E
:1005E0006E00816080936E00109281008091810086
:1005F000826080938100809181008160809381007E
:10060000809180008160809380008091B10084603F
:100610008093B1008091B00081608093B0008091A0
:100620007A00846080937A0080917A00826080935F
:100630007A0080917A00816080937A0080917A00BC
:10064000806880937A001092C10061E080E00E948F
:10065000130161E081E00E94130161E082E00E94E9
:10066000130161E083E00E94130162E087E00E94D1
:10067000130162E086E00E94130162E085E00E94BF
:10068000130162E084E00E94130161E088E00E94AF
:10069000130161E089E00E9413018EE4782E9E012F
:1006A0002F5F3F4F790190E0C92E90E0D92E66244C
:1006B00063948091B40181116FC00E941F0200E019
:1006C00010E0863409F18835E1F0F801E45EFE4F70
:1006D00080838334A1F4C8010197FC01E45EFE4FDE
:1006E00097FD03C020812E3419F02081233419F4A2
:1006F00001973197F5CFFC01E45EFE4F70820F5FEA
:100700001F4F0E941F02DDCF6092B4016CE171E0C7
:10071000FB0180E090E040E02FEF3FEF8017910772
:1007200089F05191543459F041110AC0503341F4C9
:100730002F3F5FEF350721F49C0141E001C09C0190
:100740000196ECCFF901E35EFE4F20E030E0CF01EF
:100750008C519140801791077CF481918334B9F3D7
:100760008534A9F38E3499F3A701420F531FDA01A0
:100770008C932F5F3F4FEBCF3093B3012093B201A7
:10078000F701CF018E199F09821793072CF48191ED
:10079000DB018D93BD01F5CF00E010E08091B20147
:1007A0009091B301081719070CF04BC0F801E45EF3
:1007B000FE4F808198012D5F3F4F59018833A9F486
:1007C000812C912C8F010E5F1F4FD8018C91082E28
:1007D000000C990BC09788169906B4F4C5010E94C5
:1007E0006601BFEF8B1A9B0AF0CF853379F46281E3
:1007F000062E000C770B60537109A80180911A0135
:1008000090911B010E940802850118C0863361F493
:100810006281062E000C770B60537109A80180914C
:10082000180190911901EECF873329F460911801D6
:1008300070911901E2CFC8010E9466010D5F1F4F40
:10084000ADCF0E941F02803311F41092B401C11485
:10085000D10409F42ECF0E9400002BCFEE0FFF1F12
:0C0860000590F491E02D0994F894FFCF6E
:10086C0030313233343536373839414243444546DA
:08087C00070605040001020358
:00000001FF
