:100000000C945C000C9455010C942E010C94790016
:100010000C9479000C9479000C9479000C9479007C
:100020000C9479000C9479000C9479000C9479006C
:100030000C9479000C9479000C9479000C9479005C
:100040000C94E4000C9479000C9479000C947900E1
:100050000C9479000C9479000C9479000C9479003C
:100060000C9479000C947900000000002400270013
:100070002A0000000000250028002B0004040404CE
:100080000404040402020202020203030303030342
:10009000010204081020408001020408102001021F
:1000A00004081020000000080002010000030407FB
:1000B000000000000000000011241FBECFEFD8E0B8
:1000C000DEBFCDBF11E0A0E0B1E0E8E0F6E002C0A5
:1000D00005900D92AC31B107D9F721E0ACE1B1E068
:1000E00001C01D92AD32B207E1F70E947C010C9471
:1000F00002030C94000090E0FC01EC55FF4F2491AA
:10010000FC01E057FF4F3491FC01E458FF4FE491AC
:10011000EE2309F43CC0222339F1233091F038F466
:100120002130A9F0223001F584B58F7D12C027302F
:1001300091F02830A1F02430B9F4809180008F7DB7
:1001400003C0809180008F77809380000DC084B5BC
:100150008F7784BD09C08091B0008F7703C08091F4
:10016000B0008F7D8093B000F0E0EE0FFF1FEE58DF
:10017000FF4FA591B4919FB7F894611104C08C9181
:100180003095382302C0EC913E2B3C939FBF0895DD
:1001900080912201909123018230910511F0019606
:1001A00002C081E090E09093230180932201E091CE
:1001B0002001F0912101EE0FFF1FEC5FFE4F60E088
:1001C00080810C947B0008951F920F920FB60F92BE
:1001D00011242F933F938F939F93AF93BF9380915D
:1001E000290190912A01A0912B01B0912C0130910D
:1001F000280123E0230F2D3720F40196A11DB11D06
:1002000005C026E8230F0296A11DB11D20932801E9
:100210008093290190932A01A0932B01B0932C0184
:100220008091240190912501A0912601B091270190
:100230000196A11DB11D8093240190932501A093E7
:100240002601B0932701BF91AF919F918F913F916C
:100250002F910F900FBE0F901F9018951F920F9225
:100260000FB60F9211242F933F934F935F936F9389
:100270007F938F939F93AF93BF93EF93FF93E091FF
:100280000201F09103010995FF91EF91BF91AF91A8
:100290009F918F917F916F915F914F913F912F919E
:1002A0000F900FBE0F901F9018951F920F920FB6D0
:1002B0000F9211242F933F934F935F936F937F93EC
:1002C0008F939F93AF93BF93EF93FF93E0910001C0
:1002D000F09101010995FF91EF91BF91AF919F912D
:1002E0008F917F916F915F914F913F912F910F90DF
:1002F0000FBE0F901F901895789484B5826084BDCE
:1003000084B5816084BD85B5826085BD85B5816019
:1003100085BD80916E00816080936E001092810097
:100320008091810082608093810080918100816052
:100330008093810080918000816080938000809113
:10034000B10084608093B1008091B000816080939F
:10035000B00080917A00846080937A0080917A0066
:10036000826080937A0080917A00816080937A0025
:1003700080917A00806880937A001092C10088ECA6
:1003800090E0909301018093000180916900836067
:1003900080936900E89AC4E0D1E00CE111E0DE014D
:1003A000888199819927FC01E057FF4F4491FC0116
:1003B000E458FF4F84918823A1F090E0880F991FA3
:1003C000FC01E859FF4F25913491FC01EE58FF4F95
:1003D000859194918FB7F894F9019081942B908333
:1003E0008FBF229660E08C910E947B000C171D0746
:1003F000B1F60CE010E040E0E42E40E0F42E5BE0CB
:10040000C52ED12C8091220190912301009709F4EF
:10041000ADC01092210110922001019709F080C017
:100420008091220190912301019709F09FC0E091F2
:100430002001F0912101EE0FFF1FEC5FFE4F61E004
:1004400080810E947B002FB7F894809129019091C0
:100450002A01A0912B01B0912C012FBF80931C0188
:1004600090931D01A0931E01B0931F018091220162
:1004700090912301019709F080C02FB7F8948091E3
:10048000290190912A01A0912B01B0912C012FBF3D
:1004900040911C0150911D0160911E0170911F013E
:1004A000841B950BA60BB70B883B9B40A105B105A0
:1004B000E8F263C02FB7F8948091290190912A0146
:1004C000A0912B01B0912C012FBF40911C015091A4
:1004D0001D0160911E0170911F01841B950BA60BDD
:1004E000B70B883E9340A105B10530F480912201FD
:1004F000909123010297F1F2C0912001D091210146
:10050000FE01EE0FFF1FEC5FFE4F60E080810E9456
:100510007B00209709F048C0D0922101C0922001B1
:100520008091220190912301029701F5E091200131
:10053000F0912101EE0FFF1FEC5FFE4F61E0808123
:100540000E947B002FB7F8948091290190912A0195
:10055000A0912B01B0912C012FBF80931C0190938F
:100560001D01A0931E01B0931F01C0CFE114F1043F
:1005700009F448CF0E94000045CFC0912001D091DE
:100580002101FE01EE0FFF1FEC5FFE4F60E0808156
:100590000E947B00CE010196B8010E94DA0290937E
:1005A0002101809320013CCF2197D0932101C0935A
:1005B0002001B6CF97FB072E16F4009407D077FDE5
:1005C00009D00E94EE0207FC05D03EF4909581957B
:1005D0009F4F0895709561957F4F0895AA1BBB1B8F
:1005E00051E107C0AA1FBB1FA617B70710F0A61B33
:1005F000B70B881F991F5A95A9F780959095BC0154
:08060000CD010895F894FFCF2D
:10060800E300E30000000100030004000500060009
:0C0618000700080009000A000B000C009D
:00000001FF
